{
  "contractName": "BalanceAndAmount",
  "abi": [
    {
      "inputs": [
        {
          "internalType": "uint256",
          "name": "amount",
          "type": "uint256"
        },
        {
          "internalType": "uint256",
          "name": "senderBalance",
          "type": "uint256"
        }
      ],
      "name": "amountController",
      "outputs": [],
      "stateMutability": "pure",
      "type": "function"
    }
  ],
  "bytecode": "0x608060405234801561000f575f80fd5b506102838061001d5f395ff3fe608060405234801561000f575f80fd5b5060043610610029575f3560e01c8063851de4671461002d575b5f80fd5b61004760048036038101906100429190610109565b610049565b005b8082111561008c576040517f08c379a0000000000000000000000000000000000000000000000000000000008152600401610083906101c7565b60405180910390fd5b5f82116100ce576040517f08c379a00000000000000000000000000000000000000000000000000000000081526004016100c59061022f565b60405180910390fd5b5050565b5f80fd5b5f819050919050565b6100e8816100d6565b81146100f2575f80fd5b50565b5f81359050610103816100df565b92915050565b5f806040838503121561011f5761011e6100d2565b5b5f61012c858286016100f5565b925050602061013d858286016100f5565b9150509250929050565b5f82825260208201905092915050565b7f596f752063616e2774207370656e64206d6f7265207468616e20796f752068615f8201527f76652e0000000000000000000000000000000000000000000000000000000000602082015250565b5f6101b1602383610147565b91506101bc82610157565b604082019050919050565b5f6020820190508181035f8301526101de816101a5565b9050919050565b7f416d6f756e742068617320746f206265206d6f7265207468616e20302e0000005f82015250565b5f610219601d83610147565b9150610224826101e5565b602082019050919050565b5f6020820190508181035f8301526102468161020d565b905091905056fea2646970667358221220855e88135e09ffe485e4c7be64670da13562302d087c2f5b24676467b9248c5b64736f6c63430008150033",
  "immutableReferences": {},
  "source": "// SPDX-License-Identifier: MIT\r\npragma solidity ^0.8.20;\r\n\r\ncontract BalanceAndAmount {\r\n\r\n    function amountController(uint amount, uint senderBalance) external pure {\r\n        require(amount <= senderBalance, \"You can't spend more than you have.\");\r\n        require(amount > 0, \"Amount has to be more than 0.\");\r\n    }\r\n}",
  "sourcePath": "C:\\Users\\krist\\Documents\\Blockchainutvecklare\\Examensarbete\\nft-autobidder\\contracts\\Balance_And_Amount.sol",
  "compiler": {
    "name": "solc",
    "version": "0.8.21+commit.d9974bed.Emscripten.clang"
  },
  "schemaVersion": "3.4.16",
  "updatedAt": "2024-01-02T13:10:57.425Z",
  "devdoc": {
    "kind": "dev",
    "methods": {},
    "version": 1
  },
  "userdoc": {
    "kind": "user",
    "methods": {},
    "version": 1
  }
}