{
  "contractName": "NFTBiddingContract",
  "abi": [
    {
      "inputs": [
        {
          "internalType": "address",
          "name": "_weth",
          "type": "address"
        },
        {
          "internalType": "address",
          "name": "_openseaProxy",
          "type": "address"
        }
      ],
      "stateMutability": "nonpayable",
      "type": "constructor"
    },
    {
      "anonymous": false,
      "inputs": [
        {
          "indexed": false,
          "internalType": "string",
          "name": "reason",
          "type": "string"
        }
      ],
      "name": "LogError",
      "type": "event"
    },
    {
      "inputs": [
        {
          "internalType": "uint256",
          "name": "amount",
          "type": "uint256"
        },
        {
          "internalType": "uint256",
          "name": "senderBalance",
          "type": "uint256"
        }
      ],
      "name": "amountController",
      "outputs": [],
      "stateMutability": "pure",
      "type": "function"
    },
    {
      "inputs": [],
      "name": "openseaProxy",
      "outputs": [
        {
          "internalType": "address",
          "name": "",
          "type": "address"
        }
      ],
      "stateMutability": "view",
      "type": "function"
    },
    {
      "inputs": [],
      "name": "weth",
      "outputs": [
        {
          "internalType": "contract IERC20",
          "name": "",
          "type": "address"
        }
      ],
      "stateMutability": "view",
      "type": "function"
    },
    {
      "inputs": [],
      "name": "deposit",
      "outputs": [],
      "stateMutability": "payable",
      "type": "function"
    },
    {
      "inputs": [
        {
          "internalType": "uint256",
          "name": "amount",
          "type": "uint256"
        }
      ],
      "name": "withdraw",
      "outputs": [],
      "stateMutability": "nonpayable",
      "type": "function"
    },
    {
      "inputs": [],
      "name": "showBalance",
      "outputs": [
        {
          "internalType": "uint256",
          "name": "",
          "type": "uint256"
        }
      ],
      "stateMutability": "view",
      "type": "function"
    }
  ],
  "bytecode": "0x60806040526040516100109061011e565b604051809103905ff080158015610029573d5f803e3d5ffd5b5060035f6101000a81548173ffffffffffffffffffffffffffffffffffffffff021916908373ffffffffffffffffffffffffffffffffffffffff160217905550348015610074575f80fd5b5060405162000f3338038062000f338339818101604052810190610098919061018a565b815f806101000a81548173ffffffffffffffffffffffffffffffffffffffff021916908373ffffffffffffffffffffffffffffffffffffffff1602179055508060015f6101000a81548173ffffffffffffffffffffffffffffffffffffffff021916908373ffffffffffffffffffffffffffffffffffffffff16021790555050506101c8565b6102a08062000c9383390190565b5f80fd5b5f73ffffffffffffffffffffffffffffffffffffffff82169050919050565b5f61015982610130565b9050919050565b6101698161014f565b8114610173575f80fd5b50565b5f8151905061018481610160565b92915050565b5f80604083850312156101a05761019f61012c565b5b5f6101ad85828601610176565b92505060206101be85828601610176565b9150509250929050565b610abd80620001d65f395ff3fe608060405260043610610054575f3560e01c80632e1a7d4d146100585780633fc8cef31461008057806381b2d07b146100aa578063851de467146100d4578063aea14482146100fc578063d0e30db014610126575b5f80fd5b348015610063575f80fd5b5061007e6004803603810190610079919061058b565b610130565b005b34801561008b575f80fd5b5061009461034e565b6040516100a19190610630565b60405180910390f35b3480156100b5575f80fd5b506100be610371565b6040516100cb9190610658565b60405180910390f35b3480156100df575f80fd5b506100fa60048036038101906100f59190610671565b6103b8565b005b348015610107575f80fd5b50610110610441565b60405161011d91906106cf565b60405180910390f35b61012e610466565b005b5f60025f3373ffffffffffffffffffffffffffffffffffffffff1673ffffffffffffffffffffffffffffffffffffffff1681526020019081526020015f2060010154905060035f9054906101000a900473ffffffffffffffffffffffffffffffffffffffff1673ffffffffffffffffffffffffffffffffffffffff1663851de46783836040518363ffffffff1660e01b81526004016101d09291906106e8565b5f6040518083038186803b1580156101e6575f80fd5b505afa9250505080156101f7575060015b61026e5761020361071b565b806308c379a00361025f57506102176107a8565b806102225750610261565b7fc35a0ec6603ff0b5966d7ca053a5f0984a70aad58a9a0ecb1349308815a4151a8160405161025191906108b1565b60405180910390a150610269565b505b3d5f803e3d5ffd5b61034a565b6102c18260025f3373ffffffffffffffffffffffffffffffffffffffff1673ffffffffffffffffffffffffffffffffffffffff1681526020019081526020015f20600101546104ff90919063ffffffff16565b60025f3373ffffffffffffffffffffffffffffffffffffffff1673ffffffffffffffffffffffffffffffffffffffff1681526020019081526020015f20600101819055503373ffffffffffffffffffffffffffffffffffffffff166108fc8390811502906040515f60405180830381858888f19350505050158015610348573d5f803e3d5ffd5b505b5050565b5f8054906101000a900473ffffffffffffffffffffffffffffffffffffffff1681565b5f60025f3373ffffffffffffffffffffffffffffffffffffffff1673ffffffffffffffffffffffffffffffffffffffff1681526020019081526020015f2060010154905090565b808211156103fb576040517f08c379a00000000000000000000000000000000000000000000000000000000081526004016103f290610941565b60405180910390fd5b5f821161043d576040517f08c379a0000000000000000000000000000000000000000000000000000000008152600401610434906109a9565b60405180910390fd5b5050565b60015f9054906101000a900473ffffffffffffffffffffffffffffffffffffffff1681565b6104b93460025f3373ffffffffffffffffffffffffffffffffffffffff1673ffffffffffffffffffffffffffffffffffffffff1681526020019081526020015f206001015461052590919063ffffffff16565b60025f3373ffffffffffffffffffffffffffffffffffffffff1673ffffffffffffffffffffffffffffffffffffffff1681526020019081526020015f2060010181905550565b5f82821115610511576105106109c7565b5b818361051d9190610a21565b905092915050565b5f81836105329190610a54565b905082811015610545576105446109c7565b5b92915050565b5f604051905090565b5f80fd5b5f819050919050565b61056a81610558565b8114610574575f80fd5b50565b5f8135905061058581610561565b92915050565b5f602082840312156105a05761059f610554565b5b5f6105ad84828501610577565b91505092915050565b5f73ffffffffffffffffffffffffffffffffffffffff82169050919050565b5f819050919050565b5f6105f86105f36105ee846105b6565b6105d5565b6105b6565b9050919050565b5f610609826105de565b9050919050565b5f61061a826105ff565b9050919050565b61062a81610610565b82525050565b5f6020820190506106435f830184610621565b92915050565b61065281610558565b82525050565b5f60208201905061066b5f830184610649565b92915050565b5f806040838503121561068757610686610554565b5b5f61069485828601610577565b92505060206106a585828601610577565b9150509250929050565b5f6106b9826105b6565b9050919050565b6106c9816106af565b82525050565b5f6020820190506106e25f8301846106c0565b92915050565b5f6040820190506106fb5f830185610649565b6107086020830184610649565b9392505050565b5f8160e01c9050919050565b5f60033d11156107375760045f803e6107345f5161070f565b90505b90565b5f601f19601f8301169050919050565b7f4e487b71000000000000000000000000000000000000000000000000000000005f52604160045260245ffd5b6107808261073a565b810181811067ffffffffffffffff8211171561079f5761079e61074a565b5b80604052505050565b5f60443d10610834576107b961054b565b60043d036004823e80513d602482011167ffffffffffffffff821117156107e1575050610834565b808201805167ffffffffffffffff8111156107ff5750505050610834565b80602083010160043d03850181111561081c575050505050610834565b61082b82602001850186610777565b82955050505050505b90565b5f81519050919050565b5f82825260208201905092915050565b5f5b8381101561086e578082015181840152602081019050610853565b5f8484015250505050565b5f61088382610837565b61088d8185610841565b935061089d818560208601610851565b6108a68161073a565b840191505092915050565b5f6020820190508181035f8301526108c98184610879565b905092915050565b7f596f752063616e2774207370656e64206d6f7265207468616e20796f752068615f8201527f76652e0000000000000000000000000000000000000000000000000000000000602082015250565b5f61092b602383610841565b9150610936826108d1565b604082019050919050565b5f6020820190508181035f8301526109588161091f565b9050919050565b7f416d6f756e742068617320746f206265206d6f7265207468616e20302e0000005f82015250565b5f610993601d83610841565b915061099e8261095f565b602082019050919050565b5f6020820190508181035f8301526109c081610987565b9050919050565b7f4e487b71000000000000000000000000000000000000000000000000000000005f52600160045260245ffd5b7f4e487b71000000000000000000000000000000000000000000000000000000005f52601160045260245ffd5b5f610a2b82610558565b9150610a3683610558565b9250828203905081811115610a4e57610a4d6109f4565b5b92915050565b5f610a5e82610558565b9150610a6983610558565b9250828201905080821115610a8157610a806109f4565b5b9291505056fea26469706673582212202127aa73439170afafc3ff1180dd1d956d6a7b7162d9880979c292878c9319bd64736f6c63430008150033608060405234801561000f575f80fd5b506102838061001d5f395ff3fe608060405234801561000f575f80fd5b5060043610610029575f3560e01c8063851de4671461002d575b5f80fd5b61004760048036038101906100429190610109565b610049565b005b8082111561008c576040517f08c379a0000000000000000000000000000000000000000000000000000000008152600401610083906101c7565b60405180910390fd5b5f82116100ce576040517f08c379a00000000000000000000000000000000000000000000000000000000081526004016100c59061022f565b60405180910390fd5b5050565b5f80fd5b5f819050919050565b6100e8816100d6565b81146100f2575f80fd5b50565b5f81359050610103816100df565b92915050565b5f806040838503121561011f5761011e6100d2565b5b5f61012c858286016100f5565b925050602061013d858286016100f5565b9150509250929050565b5f82825260208201905092915050565b7f596f752063616e2774207370656e64206d6f7265207468616e20796f752068615f8201527f76652e0000000000000000000000000000000000000000000000000000000000602082015250565b5f6101b1602383610147565b91506101bc82610157565b604082019050919050565b5f6020820190508181035f8301526101de816101a5565b9050919050565b7f416d6f756e742068617320746f206265206d6f7265207468616e20302e0000005f82015250565b5f610219601d83610147565b9150610224826101e5565b602082019050919050565b5f6020820190508181035f8301526102468161020d565b905091905056fea2646970667358221220855e88135e09ffe485e4c7be64670da13562302d087c2f5b24676467b9248c5b64736f6c63430008150033",
  "immutableReferences": {},
  "source": "// SPDX-License-Identifier: GPL-3.0\r\n\r\npragma solidity >=0.8.2 <0.9.0;\r\n\r\nimport \"@openzeppelin/contracts/token/ERC721/IERC721.sol\";\r\nimport \"@openzeppelin/contracts/token/ERC20/IERC20.sol\";\r\nimport \"./Safe_Math.sol\";\r\nimport \"./Balance_And_Amount.sol\";\r\n\r\ncontract NFTBiddingContract is BalanceAndAmount {\r\n    using SafeMath for uint256;\r\n    IERC20 public weth;\r\n    address public openseaProxy;\r\n\r\n    constructor(address _weth, address _openseaProxy) {\r\n        weth = IERC20(_weth);\r\n        openseaProxy = _openseaProxy;\r\n    }\r\n\r\n    mapping (address => Wallet) private wallets;\r\n\r\n    BalanceAndAmount controller = new BalanceAndAmount();\r\n\r\n    event LogError(string reason);\r\n\r\n    struct Wallet {\r\n        address owner;\r\n        uint balance;\r\n    }\r\n    //deposit function\r\n    function deposit() public payable {\r\n        wallets[msg.sender].balance = wallets[msg.sender].balance.add(msg.value);\r\n    }\r\n\r\n    //withdraw function\r\n    function withdraw(uint amount) public {\r\n        uint senderBalance = wallets[msg.sender].balance;\r\n        try controller.amountController(amount, senderBalance) {\r\n            wallets[msg.sender].balance = wallets[msg.sender].balance.sub(amount);\r\n            payable(msg.sender).transfer(amount);\r\n        } catch Error(string memory reason) {\r\n            emit LogError(reason);\r\n        }\r\n    }\r\n\r\n    //bid function\r\n\r\n    // function placeCollectionBid(address nftContract, uint256 bidPrice) public {\r\n    //     weth.approve(openseaProxy, bidPrice);\r\n\r\n    //     openseaProxy.placeCollectionBid(nftContract, bidPrice);\r\n    // }\r\n\r\n    //show balance function\r\n    function showBalance() public view returns(uint) {\r\n        return wallets[msg.sender].balance;\r\n    }\r\n}",
  "sourcePath": "C:\\Users\\krist\\Documents\\Blockchainutvecklare\\Examensarbete\\nft-autobidder\\contracts\\NFT_Bidding_Contract.sol",
  "compiler": {
    "name": "solc",
    "version": "0.8.21+commit.d9974bed.Emscripten.clang"
  },
  "schemaVersion": "3.4.16",
  "updatedAt": "2024-01-02T13:10:57.428Z",
  "devdoc": {
    "kind": "dev",
    "methods": {},
    "version": 1
  },
  "userdoc": {
    "kind": "user",
    "methods": {},
    "version": 1
  }
}